{
  "transactions": [
    {
      "hash": "0xa2d6875dfbf1b36bdfa69338722743f32e904f3ed9682c7f1c113e7c05415b26",
      "transactionType": "CALL",
      "contractName": null,
      "contractAddress": "0x2df67d2696572e4248b507a12cc323e02e3e7d89",
      "function": "issueCertificate(address,string)",
      "arguments": [
        "0x44a3D4b120F7D4f403e99062934A788C61F1AEC6",
        "QmTzWkA5Rzq3YfPZ5V5S2y6QGxDFq2D7m9XHbYsG1XhPTg"
      ],
      "transaction": {
        "from": "0x81194315767d0524470ae715ca0284fc061c1e60",
        "to": "0x2df67d2696572e4248b507a12cc323e02e3e7d89",
        "gas": "0x4e0fe",
        "value": "0x0",
        "input": "0xbb721aab00000000000000000000000044a3d4b120f7d4f403e99062934a788c61f1aec60000000000000000000000000000000000000000000000000000000000000040000000000000000000000000000000000000000000000000000000000000002e516d547a576b4135527a71335966505a355635533279365147784446713244376d39584862597347315868505467000000000000000000000000000000000000",
        "nonce": "0x4",
        "chainId": "0x72"
      },
      "additionalContracts": [],
      "isFixedGasLimit": false
    }
  ],
  "receipts": [
    {
      "status": "0x1",
      "cumulativeGasUsed": "0x38840",
      "logs": [
        {
          "address": "0x2df67d2696572e4248b507a12cc323e02e3e7d89",
          "topics": [
            "0xddf252ad1be2c89b69c2b068fc378daa952ba7f163c4a11628f55a4df523b3ef",
            "0x0000000000000000000000000000000000000000000000000000000000000000",
            "0x00000000000000000000000044a3d4b120f7d4f403e99062934a788c61f1aec6",
            "0x0000000000000000000000000000000000000000000000000000000000000002"
          ],
          "data": "0x",
          "blockHash": "0x967ec9d89c0f77dc057ff8d2382e12923acc3777e7a0d18700b03dd1bf4ae95b",
          "blockNumber": "0xe56a3a",
          "transactionHash": "0xa2d6875dfbf1b36bdfa69338722743f32e904f3ed9682c7f1c113e7c05415b26",
          "transactionIndex": "0x0",
          "logIndex": "0x0",
          "removed": false
        },
        {
          "address": "0x2df67d2696572e4248b507a12cc323e02e3e7d89",
          "topics": [
            "0xb16be250054d8205b809d26284c657602bbfc725cfc68daca4dc60a78ff137a7",
            "0x0000000000000000000000000000000000000000000000000000000000000002",
            "0x00000000000000000000000044a3d4b120f7d4f403e99062934a788c61f1aec6",
            "0x00000000000000000000000081194315767d0524470ae715ca0284fc061c1e60"
          ],
          "data": "0x",
          "blockHash": "0x967ec9d89c0f77dc057ff8d2382e12923acc3777e7a0d18700b03dd1bf4ae95b",
          "blockNumber": "0xe56a3a",
          "transactionHash": "0xa2d6875dfbf1b36bdfa69338722743f32e904f3ed9682c7f1c113e7c05415b26",
          "transactionIndex": "0x0",
          "logIndex": "0x1",
          "removed": false
        },
        {
          "address": "0x1000000000000000000000000000000000000002",
          "topics": [
            "0xe7aa66356adbd5e839ef210626f6d8f6f72109c17fadf4c4f9ca82b315ae79b4"
          ],
          "data": "0x000000000000000000000000c738fdcde9cd2fbd72618d36ed71008b8d001ba4000000000000000000000000000000000000000000000000000000000000421a",
          "blockHash": "0x967ec9d89c0f77dc057ff8d2382e12923acc3777e7a0d18700b03dd1bf4ae95b",
          "blockNumber": "0xe56a3a",
          "transactionHash": "0xa2d6875dfbf1b36bdfa69338722743f32e904f3ed9682c7f1c113e7c05415b26",
          "transactionIndex": "0x0",
          "logIndex": "0x2",
          "removed": false
        },
        {
          "address": "0x1000000000000000000000000000000000000002",
          "topics": [
            "0xe7aa66356adbd5e839ef210626f6d8f6f72109c17fadf4c4f9ca82b315ae79b4"
          ],
          "data": "0x000000000000000000000000d2a1bb23eb350814a30dd6f9de78bb2c8fdd9f1d0000000000000000000000000000000000000000000000000000000000003b68",
          "blockHash": "0x967ec9d89c0f77dc057ff8d2382e12923acc3777e7a0d18700b03dd1bf4ae95b",
          "blockNumber": "0xe56a3a",
          "transactionHash": "0xa2d6875dfbf1b36bdfa69338722743f32e904f3ed9682c7f1c113e7c05415b26",
          "transactionIndex": "0x0",
          "logIndex": "0x3",
          "removed": false
        },
        {
          "address": "0x1000000000000000000000000000000000000002",
          "topics": [
            "0xe7aa66356adbd5e839ef210626f6d8f6f72109c17fadf4c4f9ca82b315ae79b4"
          ],
          "data": "0x0000000000000000000000006892bdbbb14e1c9bd46bf31e7bac94d038fc82a6000000000000000000000000000000000000000000000000000000000000422d",
          "blockHash": "0x967ec9d89c0f77dc057ff8d2382e12923acc3777e7a0d18700b03dd1bf4ae95b",
          "blockNumber": "0xe56a3a",
          "transactionHash": "0xa2d6875dfbf1b36bdfa69338722743f32e904f3ed9682c7f1c113e7c05415b26",
          "transactionIndex": "0x0",
          "logIndex": "0x4",
          "removed": false
        },
        {
          "address": "0x1000000000000000000000000000000000000002",
          "topics": [
            "0xe7aa66356adbd5e839ef210626f6d8f6f72109c17fadf4c4f9ca82b315ae79b4"
          ],
          "data": "0x000000000000000000000000bd33bdff04c357f7fc019e72d0504c24cf4aa0100000000000000000000000000000000000000000000000000000000000008688",
          "blockHash": "0x967ec9d89c0f77dc057ff8d2382e12923acc3777e7a0d18700b03dd1bf4ae95b",
          "blockNumber": "0xe56a3a",
          "transactionHash": "0xa2d6875dfbf1b36bdfa69338722743f32e904f3ed9682c7f1c113e7c05415b26",
          "transactionIndex": "0x0",
          "logIndex": "0x5",
          "removed": false
        },
        {
          "address": "0x1000000000000000000000000000000000000002",
          "topics": [
            "0xe7aa66356adbd5e839ef210626f6d8f6f72109c17fadf4c4f9ca82b315ae79b4"
          ],
          "data": "0x000000000000000000000000a90db6d10f856799b10ef2a77ebcbf460ac71e5200000000000000000000000000000000000000000000000000000000000024f3",
          "blockHash": "0x967ec9d89c0f77dc057ff8d2382e12923acc3777e7a0d18700b03dd1bf4ae95b",
          "blockNumber": "0xe56a3a",
          "transactionHash": "0xa2d6875dfbf1b36bdfa69338722743f32e904f3ed9682c7f1c113e7c05415b26",
          "transactionIndex": "0x0",
          "logIndex": "0x6",
          "removed": false
        },
        {
          "address": "0x1000000000000000000000000000000000000002",
          "topics": [
            "0xe7aa66356adbd5e839ef210626f6d8f6f72109c17fadf4c4f9ca82b315ae79b4"
          ],
          "data": "0x0000000000000000000000000b162ca3acf3482d3357972e12d794434085d8390000000000000000000000000000000000000000000000000000000000012d53",
          "blockHash": "0x967ec9d89c0f77dc057ff8d2382e12923acc3777e7a0d18700b03dd1bf4ae95b",
          "blockNumber": "0xe56a3a",
          "transactionHash": "0xa2d6875dfbf1b36bdfa69338722743f32e904f3ed9682c7f1c113e7c05415b26",
          "transactionIndex": "0x0",
          "logIndex": "0x7",
          "removed": false
        }
      ],
      "logsBloom": "0x24020000000000000000000000000000400200000000000000000000000000000000000000001000000000000000000000000000000000004000000000000000000000000000000000400008000000000000000000000000000080000000000000000000020008000000000000000800000000000000000001000010000000000000000000000000000000000000000000000000000000000000000400000000081000000080000000000100000001000000000000000000000000000000000000000002000000000000000000000000000000000000000000020000000020000000000000000000000000000000000000000000008000000800001000000000",
      "type": "0x2",
      "transactionHash": "0xa2d6875dfbf1b36bdfa69338722743f32e904f3ed9682c7f1c113e7c05415b26",
      "transactionIndex": "0x0",
      "blockHash": "0x967ec9d89c0f77dc057ff8d2382e12923acc3777e7a0d18700b03dd1bf4ae95b",
      "blockNumber": "0xe56a3a",
      "gasUsed": "0x38840",
      "effectiveGasPrice": "0x7dba8217f",
      "from": "0x81194315767d0524470ae715ca0284fc061c1e60",
      "to": "0x2df67d2696572e4248b507a12cc323e02e3e7d89",
      "contractAddress": null
    }
  ],
  "libraries": [],
  "pending": [],
  "returns": {},
  "timestamp": 1739029857,
  "chain": 114,
  "commit": "364b42a"
}